{
  "abi": [
    {
      "inputs": [
        {
          "internalType": "string",
          "name": "_name",
          "type": "string"
        },
        {
          "internalType": "string",
          "name": "_symbol",
          "type": "string"
        },
        {
          "internalType": "string",
          "name": "_version",
          "type": "string"
        },
        {
          "internalType": "uint8",
          "name": "decimals",
          "type": "uint8"
        }
      ],
      "stateMutability": "nonpayable",
      "type": "constructor"
    },
    {
      "anonymous": false,
      "inputs": [
        {
          "indexed": true,
          "internalType": "address",
          "name": "owner",
          "type": "address"
        },
        {
          "indexed": true,
          "internalType": "address",
          "name": "spender",
          "type": "address"
        },
        {
          "indexed": false,
          "internalType": "uint256",
          "name": "value",
          "type": "uint256"
        }
      ],
      "name": "Approval",
      "type": "event"
    },
    {
      "anonymous": false,
      "inputs": [
        {
          "indexed": true,
          "internalType": "address",
          "name": "from",
          "type": "address"
        },
        {
          "indexed": true,
          "internalType": "address",
          "name": "to",
          "type": "address"
        },
        {
          "indexed": false,
          "internalType": "uint256",
          "name": "value",
          "type": "uint256"
        }
      ],
      "name": "Transfer",
      "type": "event"
    },
    {
      "inputs": [],
      "name": "DOMAIN_SEPARATOR",
      "outputs": [
        {
          "internalType": "bytes32",
          "name": "",
          "type": "bytes32"
        }
      ],
      "stateMutability": "view",
      "type": "function"
    },
    {
      "inputs": [
        {
          "internalType": "address",
          "name": "owner",
          "type": "address"
        },
        {
          "internalType": "address",
          "name": "spender",
          "type": "address"
        }
      ],
      "name": "allowance",
      "outputs": [
        {
          "internalType": "uint256",
          "name": "",
          "type": "uint256"
        }
      ],
      "stateMutability": "view",
      "type": "function"
    },
    {
      "inputs": [
        {
          "internalType": "address",
          "name": "spender",
          "type": "address"
        },
        {
          "internalType": "uint256",
          "name": "amount",
          "type": "uint256"
        }
      ],
      "name": "approve",
      "outputs": [
        {
          "internalType": "bool",
          "name": "",
          "type": "bool"
        }
      ],
      "stateMutability": "nonpayable",
      "type": "function"
    },
    {
      "inputs": [
        {
          "internalType": "address",
          "name": "account",
          "type": "address"
        }
      ],
      "name": "balanceOf",
      "outputs": [
        {
          "internalType": "uint256",
          "name": "",
          "type": "uint256"
        }
      ],
      "stateMutability": "view",
      "type": "function"
    },
    {
      "inputs": [],
      "name": "decimals",
      "outputs": [
        {
          "internalType": "uint8",
          "name": "",
          "type": "uint8"
        }
      ],
      "stateMutability": "view",
      "type": "function"
    },
    {
      "inputs": [
        {
          "internalType": "address",
          "name": "spender",
          "type": "address"
        },
        {
          "internalType": "uint256",
          "name": "subtractedValue",
          "type": "uint256"
        }
      ],
      "name": "decreaseAllowance",
      "outputs": [
        {
          "internalType": "bool",
          "name": "",
          "type": "bool"
        }
      ],
      "stateMutability": "nonpayable",
      "type": "function"
    },
    {
      "inputs": [
        {
          "internalType": "address",
          "name": "spender",
          "type": "address"
        },
        {
          "internalType": "uint256",
          "name": "addedValue",
          "type": "uint256"
        }
      ],
      "name": "increaseAllowance",
      "outputs": [
        {
          "internalType": "bool",
          "name": "",
          "type": "bool"
        }
      ],
      "stateMutability": "nonpayable",
      "type": "function"
    },
    {
      "inputs": [],
      "name": "name",
      "outputs": [
        {
          "internalType": "string",
          "name": "",
          "type": "string"
        }
      ],
      "stateMutability": "view",
      "type": "function"
    },
    {
      "inputs": [
        {
          "internalType": "address",
          "name": "",
          "type": "address"
        }
      ],
      "name": "nonces",
      "outputs": [
        {
          "internalType": "uint256",
          "name": "",
          "type": "uint256"
        }
      ],
      "stateMutability": "view",
      "type": "function"
    },
    {
      "inputs": [
        {
          "internalType": "address",
          "name": "owner",
          "type": "address"
        },
        {
          "internalType": "address",
          "name": "spender",
          "type": "address"
        },
        {
          "internalType": "uint256",
          "name": "value",
          "type": "uint256"
        },
        {
          "internalType": "uint256",
          "name": "deadline",
          "type": "uint256"
        },
        {
          "internalType": "uint8",
          "name": "v",
          "type": "uint8"
        },
        {
          "internalType": "bytes32",
          "name": "r",
          "type": "bytes32"
        },
        {
          "internalType": "bytes32",
          "name": "s",
          "type": "bytes32"
        }
      ],
      "name": "permit",
      "outputs": [],
      "stateMutability": "nonpayable",
      "type": "function"
    },
    {
      "inputs": [
        {
          "internalType": "bytes4",
          "name": "interfaceId",
          "type": "bytes4"
        }
      ],
      "name": "supportsInterface",
      "outputs": [
        {
          "internalType": "bool",
          "name": "",
          "type": "bool"
        }
      ],
      "stateMutability": "view",
      "type": "function"
    },
    {
      "inputs": [],
      "name": "symbol",
      "outputs": [
        {
          "internalType": "string",
          "name": "",
          "type": "string"
        }
      ],
      "stateMutability": "view",
      "type": "function"
    },
    {
      "inputs": [],
      "name": "totalSupply",
      "outputs": [
        {
          "internalType": "uint256",
          "name": "",
          "type": "uint256"
        }
      ],
      "stateMutability": "view",
      "type": "function"
    },
    {
      "inputs": [
        {
          "internalType": "address",
          "name": "to",
          "type": "address"
        },
        {
          "internalType": "uint256",
          "name": "amount",
          "type": "uint256"
        }
      ],
      "name": "transfer",
      "outputs": [
        {
          "internalType": "bool",
          "name": "",
          "type": "bool"
        }
      ],
      "stateMutability": "nonpayable",
      "type": "function"
    },
    {
      "inputs": [
        {
          "internalType": "address",
          "name": "from",
          "type": "address"
        },
        {
          "internalType": "address",
          "name": "to",
          "type": "address"
        },
        {
          "internalType": "uint256",
          "name": "amount",
          "type": "uint256"
        }
      ],
      "name": "transferFrom",
      "outputs": [
        {
          "internalType": "bool",
          "name": "",
          "type": "bool"
        }
      ],
      "stateMutability": "nonpayable",
      "type": "function"
    }
  ],
  "bytecode": {
    "object": "0x6101606040523480156200001257600080fd5b5060405162001197380380620011978339810160408190526200003591620001c0565b838281856003620000478382620002fa565b506004620000568282620002fa565b5050825160208085019190912083518483012060e08290526101008190524660a0818152604080517f1a83649f11a3e56d58ed3274189f99ab6137d641dfdfdeb45dd06a89f72c4e5281880181905281830187905260608201869052608082019490945230818401528151808203909301835260c0019052805194019390932091935091906080523060c052610120525050505060ff166101405250620003c6915050565b634e487b7160e01b600052604160045260246000fd5b600082601f8301126200012357600080fd5b81516001600160401b0380821115620001405762000140620000fb565b604051601f8301601f19908116603f011681019082821181831017156200016b576200016b620000fb565b816040528381526020925086838588010111156200018857600080fd5b600091505b83821015620001ac57858201830151818301840152908201906200018d565b600093810190920192909252949350505050565b60008060008060808587031215620001d757600080fd5b84516001600160401b0380821115620001ef57600080fd5b620001fd8883890162000111565b955060208701519150808211156200021457600080fd5b620002228883890162000111565b945060408701519150808211156200023957600080fd5b50620002488782880162000111565b925050606085015160ff811681146200026057600080fd5b939692955090935050565b600181811c908216806200028057607f821691505b602082108103620002a157634e487b7160e01b600052602260045260246000fd5b50919050565b601f821115620002f557600081815260208120601f850160051c81016020861015620002d05750805b601f850160051c820191505b81811015620002f157828155600101620002dc565b5050505b505050565b81516001600160401b03811115620003165762000316620000fb565b6200032e816200032784546200026b565b84620002a7565b602080601f8311600181146200036657600084156200034d5750858301515b600019600386901b1c1916600185901b178555620002f1565b600085815260208120601f198616915b82811015620003975788860151825594840194600190910190840162000376565b5085821015620003b65787850151600019600388901b60f8161c191681555b5050505050600190811b01905550565b60805160a05160c05160e051610100516101205161014051610d7662000421600039600061017601526000610a8401526000610ad301526000610aae01526000610a0801526000610a3201526000610a5c0152610d766000f3fe608060405234801561001057600080fd5b50600436106100f55760003560e01c80633950935111610097578063a457c2d711610066578063a457c2d71461020c578063a9059cbb1461021f578063d505accf14610232578063dd62ed3e1461024757600080fd5b806339509351146101a857806370a08231146101bb5780637ecebe00146101e457806395d89b411461020457600080fd5b806318160ddd116100d357806318160ddd1461014a57806323b872dd1461015c578063313ce5671461016f5780633644e515146101a057600080fd5b806301ffc9a7146100fa57806306fdde0314610122578063095ea7b314610137575b600080fd5b61010d610108366004610b23565b61025a565b60405190151581526020015b60405180910390f35b61012a6102ac565b6040516101199190610b54565b61010d610145366004610bbe565b61033e565b6002545b604051908152602001610119565b61010d61016a366004610be8565b610356565b60405160ff7f0000000000000000000000000000000000000000000000000000000000000000168152602001610119565b61014e61037a565b61010d6101b6366004610bbe565b610389565b61014e6101c9366004610c24565b6001600160a01b031660009081526020819052604090205490565b61014e6101f2366004610c24565b60056020526000908152604090205481565b61012a6103ab565b61010d61021a366004610bbe565b6103ba565b61010d61022d366004610bbe565b61043a565b610245610240366004610c3f565b610448565b005b61014e610255366004610cb2565b61068e565b60006001600160e01b0319821663d505accf60e01b148061028b57506001600160e01b031982166336372b0760e01b145b806102a657506301ffc9a760e01b6001600160e01b03198316145b92915050565b6060600380546102bb90610ce5565b80601f01602080910402602001604051908101604052809291908181526020018280546102e790610ce5565b80156103345780601f1061030957610100808354040283529160200191610334565b820191906000526020600020905b81548152906001019060200180831161031757829003601f168201915b5050505050905090565b60003361034c8185856106b9565b5060019392505050565b6000336103648582856107dd565b61036f858585610857565b506001949350505050565b60006103846109fb565b905090565b60003361034c81858561039c838361068e565b6103a69190610d1f565b6106b9565b6060600480546102bb90610ce5565b600033816103c8828661068e565b90508381101561042d5760405162461bcd60e51b815260206004820152602560248201527f45524332303a2064656372656173656420616c6c6f77616e63652062656c6f77604482015264207a65726f60d81b60648201526084015b60405180910390fd5b61036f82868684036106b9565b60003361034c818585610857565b428410156104985760405162461bcd60e51b815260206004820152601760248201527f5045524d49545f444541444c494e455f455850495245440000000000000000006044820152606401610424565b6001600160a01b03878116600081815260056020908152604080832080546001810190915581517f6e71edae12b1b97f4d1f60370fef10105fa2faae0126114a169c64845d6126c98185015280830195909552948b166060850152608084018a905260a084019490945260c08084018990528451808503909101815260e0909301909352815191909201209061052c61037a565b60405161190160f01b602082015260228101919091526042810183905260620160408051601f198184030181528282528051602091820120600080855291840180845281905260ff89169284019290925260608301879052608083018690529092509060019060a0016020604051602081039080840390855afa1580156105b7573d6000803e3d6000fd5b5050604051601f1901519150506001600160a01b038116158015906105ed5750896001600160a01b0316816001600160a01b0316145b61062a5760405162461bcd60e51b815260206004820152600e60248201526d24a72b20a624a22fa9a4a3a722a960911b6044820152606401610424565b6106358a8a8a6106b9565b505050856001600160a01b0316876001600160a01b03167f8c5be1e5ebec7d5bd14f71427d1e84f3dd0314c0f7b2291e5b200ac8c7c3b9258760405161067d91815260200190565b60405180910390a350505050505050565b6001600160a01b03918216600090815260016020908152604080832093909416825291909152205490565b6001600160a01b03831661071b5760405162461bcd60e51b8152602060048201526024808201527f45524332303a20617070726f76652066726f6d20746865207a65726f206164646044820152637265737360e01b6064820152608401610424565b6001600160a01b03821661077c5760405162461bcd60e51b815260206004820152602260248201527f45524332303a20617070726f766520746f20746865207a65726f206164647265604482015261737360f01b6064820152608401610424565b6001600160a01b0383811660008181526001602090815260408083209487168084529482529182902085905590518481527f8c5be1e5ebec7d5bd14f71427d1e84f3dd0314c0f7b2291e5b200ac8c7c3b925910160405180910390a3505050565b60006107e9848461068e565b9050600019811461085157818110156108445760405162461bcd60e51b815260206004820152601d60248201527f45524332303a20696e73756666696369656e7420616c6c6f77616e63650000006044820152606401610424565b61085184848484036106b9565b50505050565b6001600160a01b0383166108bb5760405162461bcd60e51b815260206004820152602560248201527f45524332303a207472616e736665722066726f6d20746865207a65726f206164604482015264647265737360d81b6064820152608401610424565b6001600160a01b03821661091d5760405162461bcd60e51b815260206004820152602360248201527f45524332303a207472616e7366657220746f20746865207a65726f206164647260448201526265737360e81b6064820152608401610424565b6001600160a01b038316600090815260208190526040902054818110156109955760405162461bcd60e51b815260206004820152602660248201527f45524332303a207472616e7366657220616d6f756e7420657863656564732062604482015265616c616e636560d01b6064820152608401610424565b6001600160a01b03848116600081815260208181526040808320878703905593871680835291849020805487019055925185815290927fddf252ad1be2c89b69c2b068fc378daa952ba7f163c4a11628f55a4df523b3ef910160405180910390a3610851565b6000306001600160a01b037f000000000000000000000000000000000000000000000000000000000000000016148015610a5457507f000000000000000000000000000000000000000000000000000000000000000046145b15610a7e57507f000000000000000000000000000000000000000000000000000000000000000090565b604080517f00000000000000000000000000000000000000000000000000000000000000006020808301919091527f0000000000000000000000000000000000000000000000000000000000000000828401527f000000000000000000000000000000000000000000000000000000000000000060608301524660808301523060a0808401919091528351808403909101815260c09092019092528051910120610384565b600060208284031215610b3557600080fd5b81356001600160e01b031981168114610b4d57600080fd5b9392505050565b600060208083528351808285015260005b81811015610b8157858101830151858201604001528201610b65565b506000604082860101526040601f19601f8301168501019250505092915050565b80356001600160a01b0381168114610bb957600080fd5b919050565b60008060408385031215610bd157600080fd5b610bda83610ba2565b946020939093013593505050565b600080600060608486031215610bfd57600080fd5b610c0684610ba2565b9250610c1460208501610ba2565b9150604084013590509250925092565b600060208284031215610c3657600080fd5b610b4d82610ba2565b600080600080600080600060e0888a031215610c5a57600080fd5b610c6388610ba2565b9650610c7160208901610ba2565b95506040880135945060608801359350608088013560ff81168114610c9557600080fd5b9699959850939692959460a0840135945060c09093013592915050565b60008060408385031215610cc557600080fd5b610cce83610ba2565b9150610cdc60208401610ba2565b90509250929050565b600181811c90821680610cf957607f821691505b602082108103610d1957634e487b7160e01b600052602260045260246000fd5b50919050565b808201808211156102a657634e487b7160e01b600052601160045260246000fdfea26469706673582212204faef2080feb1d2f1167e7388e2d40cc1413f27dd6c55e0212ffb1cbc98abe4264736f6c63430008100033",
    "linkReferences": {}
  },
  "methodIdentifiers": {
    "DOMAIN_SEPARATOR()": "3644e515",
    "allowance(address,address)": "dd62ed3e",
    "approve(address,uint256)": "095ea7b3",
    "balanceOf(address)": "70a08231",
    "decimals()": "313ce567",
    "decreaseAllowance(address,uint256)": "a457c2d7",
    "increaseAllowance(address,uint256)": "39509351",
    "name()": "06fdde03",
    "nonces(address)": "7ecebe00",
    "permit(address,address,uint256,uint256,uint8,bytes32,bytes32)": "d505accf",
    "supportsInterface(bytes4)": "01ffc9a7",
    "symbol()": "95d89b41",
    "totalSupply()": "18160ddd",
    "transfer(address,uint256)": "a9059cbb",
    "transferFrom(address,address,uint256)": "23b872dd"
  },
  "id": 19
}