{
  "abi": [
    {
      "inputs": [
        {
          "internalType": "address",
          "name": "_tokenAddress",
          "type": "address"
        }
      ],
      "stateMutability": "nonpayable",
      "type": "constructor"
    },
    {
      "inputs": [
        {
          "internalType": "address",
          "name": "user",
          "type": "address"
        }
      ],
      "name": "balanceOf",
      "outputs": [
        {
          "internalType": "uint256",
          "name": "",
          "type": "uint256"
        }
      ],
      "stateMutability": "nonpayable",
      "type": "function"
    },
    {
      "inputs": [
        {
          "internalType": "uint256",
          "name": "amount",
          "type": "uint256"
        },
        {
          "internalType": "uint256",
          "name": "deadline",
          "type": "uint256"
        },
        {
          "internalType": "uint8",
          "name": "v",
          "type": "uint8"
        },
        {
          "internalType": "bytes32",
          "name": "r",
          "type": "bytes32"
        },
        {
          "internalType": "bytes32",
          "name": "s",
          "type": "bytes32"
        }
      ],
      "name": "deposit",
      "outputs": [],
      "stateMutability": "nonpayable",
      "type": "function"
    },
    {
      "inputs": [
        {
          "internalType": "uint256",
          "name": "amount",
          "type": "uint256"
        }
      ],
      "name": "withdraw",
      "outputs": [],
      "stateMutability": "nonpayable",
      "type": "function"
    }
  ],
  "bytecode": {
    "object": "0x60a060405234801561001057600080fd5b506040516105b23803806105b283398101604081905261002f91610103565b6040516301ffc9a760e01b815263d505accf60e01b60048201819052906001600160a01b038316906301ffc9a790602401602060405180830381865afa15801561007d573d6000803e3d6000fd5b505050506040513d601f19601f820116820180604052508101906100a19190610133565b6100f15760405162461bcd60e51b815260206004820152601560248201527f544f4b454e5f4d5553545f42455f454950323631320000000000000000000000604482015260640160405180910390fd5b506001600160a01b0316608052610155565b60006020828403121561011557600080fd5b81516001600160a01b038116811461012c57600080fd5b9392505050565b60006020828403121561014557600080fd5b8151801515811461012c57600080fd5b60805161043b6101776000396000818161014301526101ff015261043b6000f3fe608060405234801561001057600080fd5b50600436106100415760003560e01c80632e1a7d4d1461004657806370a082311461005b5780637e34dbe014610096575b600080fd5b610059610054366004610309565b6100a9565b005b610084610069366004610322565b6001600160a01b031660009081526020819052604090205490565b60405190815260200160405180910390f35b6100596100a4366004610352565b6101bf565b336000908152602081905260409020548111156101035760405162461bcd60e51b8152602060048201526014602482015273494e53554646494349454e545f42414c414e434560601b604482015260640160405180910390fd5b33600090815260208190526040812080548392906101229084906103b7565b909155505060405163a9059cbb60e01b8152336004820152602481018290527f0000000000000000000000000000000000000000000000000000000000000000906001600160a01b0382169063a9059cbb906044016020604051808303816000875af1158015610196573d6000803e3d6000fd5b505050506040513d601f19601f820116820180604052508101906101ba91906103d0565b505050565b60405163d505accf60e01b8152336004820152306024820152604481018690526064810185905260ff8416608482015260a4810183905260c481018290527f0000000000000000000000000000000000000000000000000000000000000000906001600160a01b0382169063d505accf9060e401600060405180830381600087803b15801561024d57600080fd5b505af1158015610261573d6000803e3d6000fd5b50506040516323b872dd60e01b8152336004820152306024820152604481018990526001600160a01b03841692506323b872dd91506064016020604051808303816000875af11580156102b8573d6000803e3d6000fd5b505050506040513d601f19601f820116820180604052508101906102dc91906103d0565b5033600090815260208190526040812080548892906102fc9084906103f2565b9091555050505050505050565b60006020828403121561031b57600080fd5b5035919050565b60006020828403121561033457600080fd5b81356001600160a01b038116811461034b57600080fd5b9392505050565b600080600080600060a0868803121561036a57600080fd5b8535945060208601359350604086013560ff8116811461038957600080fd5b94979396509394606081013594506080013592915050565b634e487b7160e01b600052601160045260246000fd5b818103818111156103ca576103ca6103a1565b92915050565b6000602082840312156103e257600080fd5b8151801515811461034b57600080fd5b808201808211156103ca576103ca6103a156fea2646970667358221220006d5c250012e59619c6e14df6e42c214f0c474121a92357064f1ce39155d87d64736f6c63430008100033",
    "linkReferences": {}
  },
  "methodIdentifiers": {
    "balanceOf(address)": "70a08231",
    "deposit(uint256,uint256,uint8,bytes32,bytes32)": "7e34dbe0",
    "withdraw(uint256)": "2e1a7d4d"
  },
  "id": 18
}