{
  "abi": [
    {
      "inputs": [],
      "stateMutability": "nonpayable",
      "type": "constructor"
    },
    {
      "anonymous": false,
      "inputs": [
        {
          "indexed": true,
          "internalType": "address",
          "name": "owner",
          "type": "address"
        },
        {
          "indexed": true,
          "internalType": "address",
          "name": "spender",
          "type": "address"
        },
        {
          "indexed": false,
          "internalType": "uint256",
          "name": "value",
          "type": "uint256"
        }
      ],
      "name": "Approval",
      "type": "event"
    },
    {
      "anonymous": false,
      "inputs": [
        {
          "indexed": true,
          "internalType": "address",
          "name": "from",
          "type": "address"
        },
        {
          "indexed": true,
          "internalType": "address",
          "name": "to",
          "type": "address"
        },
        {
          "indexed": false,
          "internalType": "uint256",
          "name": "value",
          "type": "uint256"
        }
      ],
      "name": "Transfer",
      "type": "event"
    },
    {
      "inputs": [],
      "name": "DOMAIN_SEPARATOR",
      "outputs": [
        {
          "internalType": "bytes32",
          "name": "",
          "type": "bytes32"
        }
      ],
      "stateMutability": "view",
      "type": "function"
    },
    {
      "inputs": [
        {
          "internalType": "address",
          "name": "owner",
          "type": "address"
        },
        {
          "internalType": "address",
          "name": "spender",
          "type": "address"
        }
      ],
      "name": "allowance",
      "outputs": [
        {
          "internalType": "uint256",
          "name": "",
          "type": "uint256"
        }
      ],
      "stateMutability": "view",
      "type": "function"
    },
    {
      "inputs": [
        {
          "internalType": "address",
          "name": "spender",
          "type": "address"
        },
        {
          "internalType": "uint256",
          "name": "amount",
          "type": "uint256"
        }
      ],
      "name": "approve",
      "outputs": [
        {
          "internalType": "bool",
          "name": "",
          "type": "bool"
        }
      ],
      "stateMutability": "nonpayable",
      "type": "function"
    },
    {
      "inputs": [
        {
          "internalType": "address",
          "name": "account",
          "type": "address"
        }
      ],
      "name": "balanceOf",
      "outputs": [
        {
          "internalType": "uint256",
          "name": "",
          "type": "uint256"
        }
      ],
      "stateMutability": "view",
      "type": "function"
    },
    {
      "inputs": [],
      "name": "decimals",
      "outputs": [
        {
          "internalType": "uint8",
          "name": "",
          "type": "uint8"
        }
      ],
      "stateMutability": "view",
      "type": "function"
    },
    {
      "inputs": [
        {
          "internalType": "address",
          "name": "spender",
          "type": "address"
        },
        {
          "internalType": "uint256",
          "name": "subtractedValue",
          "type": "uint256"
        }
      ],
      "name": "decreaseAllowance",
      "outputs": [
        {
          "internalType": "bool",
          "name": "",
          "type": "bool"
        }
      ],
      "stateMutability": "nonpayable",
      "type": "function"
    },
    {
      "inputs": [
        {
          "internalType": "address",
          "name": "spender",
          "type": "address"
        },
        {
          "internalType": "uint256",
          "name": "addedValue",
          "type": "uint256"
        }
      ],
      "name": "increaseAllowance",
      "outputs": [
        {
          "internalType": "bool",
          "name": "",
          "type": "bool"
        }
      ],
      "stateMutability": "nonpayable",
      "type": "function"
    },
    {
      "inputs": [
        {
          "internalType": "address",
          "name": "_to",
          "type": "address"
        },
        {
          "internalType": "uint256",
          "name": "_amount",
          "type": "uint256"
        }
      ],
      "name": "mint",
      "outputs": [],
      "stateMutability": "nonpayable",
      "type": "function"
    },
    {
      "inputs": [],
      "name": "name",
      "outputs": [
        {
          "internalType": "string",
          "name": "",
          "type": "string"
        }
      ],
      "stateMutability": "view",
      "type": "function"
    },
    {
      "inputs": [
        {
          "internalType": "address",
          "name": "",
          "type": "address"
        }
      ],
      "name": "nonces",
      "outputs": [
        {
          "internalType": "uint256",
          "name": "",
          "type": "uint256"
        }
      ],
      "stateMutability": "view",
      "type": "function"
    },
    {
      "inputs": [
        {
          "internalType": "address",
          "name": "owner",
          "type": "address"
        },
        {
          "internalType": "address",
          "name": "spender",
          "type": "address"
        },
        {
          "internalType": "uint256",
          "name": "value",
          "type": "uint256"
        },
        {
          "internalType": "uint256",
          "name": "deadline",
          "type": "uint256"
        },
        {
          "internalType": "uint8",
          "name": "v",
          "type": "uint8"
        },
        {
          "internalType": "bytes32",
          "name": "r",
          "type": "bytes32"
        },
        {
          "internalType": "bytes32",
          "name": "s",
          "type": "bytes32"
        }
      ],
      "name": "permit",
      "outputs": [],
      "stateMutability": "nonpayable",
      "type": "function"
    },
    {
      "inputs": [
        {
          "internalType": "bytes4",
          "name": "interfaceId",
          "type": "bytes4"
        }
      ],
      "name": "supportsInterface",
      "outputs": [
        {
          "internalType": "bool",
          "name": "",
          "type": "bool"
        }
      ],
      "stateMutability": "view",
      "type": "function"
    },
    {
      "inputs": [],
      "name": "symbol",
      "outputs": [
        {
          "internalType": "string",
          "name": "",
          "type": "string"
        }
      ],
      "stateMutability": "view",
      "type": "function"
    },
    {
      "inputs": [],
      "name": "totalSupply",
      "outputs": [
        {
          "internalType": "uint256",
          "name": "",
          "type": "uint256"
        }
      ],
      "stateMutability": "view",
      "type": "function"
    },
    {
      "inputs": [
        {
          "internalType": "address",
          "name": "to",
          "type": "address"
        },
        {
          "internalType": "uint256",
          "name": "amount",
          "type": "uint256"
        }
      ],
      "name": "transfer",
      "outputs": [
        {
          "internalType": "bool",
          "name": "",
          "type": "bool"
        }
      ],
      "stateMutability": "nonpayable",
      "type": "function"
    },
    {
      "inputs": [
        {
          "internalType": "address",
          "name": "from",
          "type": "address"
        },
        {
          "internalType": "address",
          "name": "to",
          "type": "address"
        },
        {
          "internalType": "uint256",
          "name": "amount",
          "type": "uint256"
        }
      ],
      "name": "transferFrom",
      "outputs": [
        {
          "internalType": "bool",
          "name": "",
          "type": "bool"
        }
      ],
      "stateMutability": "nonpayable",
      "type": "function"
    }
  ],
  "bytecode": {
    "object": "0x6101606040523480156200001257600080fd5b506040518060400160405280600a81526020016926b7b1b5902a37b5b2b760b11b815250604051806040016040528060048152602001634d6f636b60e01b815250604051806040016040528060058152602001640312e302e360dc1b8152506012838285858160039081620000889190620001e1565b506004620000978282620001e1565b5050825160208085019190912083518483012060e08290526101008190524660a0818152604080517f1a83649f11a3e56d58ed3274189f99ab6137d641dfdfdeb45dd06a89f72c4e5281880181905281830187905260608201869052608082019490945230818401528151808203909301835260c0019052805194019390932091935091906080523060c052610120525050505060ff166101405250620002ad915050565b634e487b7160e01b600052604160045260246000fd5b600181811c908216806200016757607f821691505b6020821081036200018857634e487b7160e01b600052602260045260246000fd5b50919050565b601f821115620001dc57600081815260208120601f850160051c81016020861015620001b75750805b601f850160051c820191505b81811015620001d857828155600101620001c3565b5050505b505050565b81516001600160401b03811115620001fd57620001fd6200013c565b62000215816200020e845462000152565b846200018e565b602080601f8311600181146200024d5760008415620002345750858301515b600019600386901b1c1916600185901b178555620001d8565b600085815260208120601f198616915b828110156200027e578886015182559484019460019091019084016200025d565b50858210156200029d5787850151600019600388901b60f8161c191681555b5050505050600190811b01905550565b60805160a05160c05160e051610100516101205161014051610e6062000308600039600061018101526000610ab101526000610b0001526000610adb01526000610a3401526000610a5e01526000610a880152610e606000f3fe608060405234801561001057600080fd5b50600436106101005760003560e01c806340c10f1911610097578063a457c2d711610066578063a457c2d71461022c578063a9059cbb1461023f578063d505accf14610252578063dd62ed3e1461026557600080fd5b806340c10f19146101c657806370a08231146101db5780637ecebe001461020457806395d89b411461022457600080fd5b806323b872dd116100d357806323b872dd14610167578063313ce5671461017a5780633644e515146101ab57806339509351146101b357600080fd5b806301ffc9a71461010557806306fdde031461012d578063095ea7b31461014257806318160ddd14610155575b600080fd5b610118610113366004610c0d565b610278565b60405190151581526020015b60405180910390f35b6101356102ca565b6040516101249190610c3e565b610118610150366004610ca8565b61035c565b6002545b604051908152602001610124565b610118610175366004610cd2565b610374565b60405160ff7f0000000000000000000000000000000000000000000000000000000000000000168152602001610124565b610159610398565b6101186101c1366004610ca8565b6103a7565b6101d96101d4366004610ca8565b6103c9565b005b6101596101e9366004610d0e565b6001600160a01b031660009081526020819052604090205490565b610159610212366004610d0e565b60056020526000908152604090205481565b6101356103d7565b61011861023a366004610ca8565b6103e6565b61011861024d366004610ca8565b610466565b6101d9610260366004610d29565b610474565b610159610273366004610d9c565b6106ba565b60006001600160e01b0319821663d505accf60e01b14806102a957506001600160e01b031982166336372b0760e01b145b806102c457506301ffc9a760e01b6001600160e01b03198316145b92915050565b6060600380546102d990610dcf565b80601f016020809104026020016040519081016040528092919081815260200182805461030590610dcf565b80156103525780601f1061032757610100808354040283529160200191610352565b820191906000526020600020905b81548152906001019060200180831161033557829003601f168201915b5050505050905090565b60003361036a8185856106e5565b5060019392505050565b600033610382858285610809565b61038d858585610883565b506001949350505050565b60006103a2610a27565b905090565b60003361036a8185856103ba83836106ba565b6103c49190610e09565b6106e5565b6103d38282610b4e565b5050565b6060600480546102d990610dcf565b600033816103f482866106ba565b9050838110156104595760405162461bcd60e51b815260206004820152602560248201527f45524332303a2064656372656173656420616c6c6f77616e63652062656c6f77604482015264207a65726f60d81b60648201526084015b60405180910390fd5b61038d82868684036106e5565b60003361036a818585610883565b428410156104c45760405162461bcd60e51b815260206004820152601760248201527f5045524d49545f444541444c494e455f455850495245440000000000000000006044820152606401610450565b6001600160a01b03878116600081815260056020908152604080832080546001810190915581517f6e71edae12b1b97f4d1f60370fef10105fa2faae0126114a169c64845d6126c98185015280830195909552948b166060850152608084018a905260a084019490945260c08084018990528451808503909101815260e09093019093528151919092012090610558610398565b60405161190160f01b602082015260228101919091526042810183905260620160408051601f198184030181528282528051602091820120600080855291840180845281905260ff89169284019290925260608301879052608083018690529092509060019060a0016020604051602081039080840390855afa1580156105e3573d6000803e3d6000fd5b5050604051601f1901519150506001600160a01b038116158015906106195750896001600160a01b0316816001600160a01b0316145b6106565760405162461bcd60e51b815260206004820152600e60248201526d24a72b20a624a22fa9a4a3a722a960911b6044820152606401610450565b6106618a8a8a6106e5565b505050856001600160a01b0316876001600160a01b03167f8c5be1e5ebec7d5bd14f71427d1e84f3dd0314c0f7b2291e5b200ac8c7c3b925876040516106a991815260200190565b60405180910390a350505050505050565b6001600160a01b03918216600090815260016020908152604080832093909416825291909152205490565b6001600160a01b0383166107475760405162461bcd60e51b8152602060048201526024808201527f45524332303a20617070726f76652066726f6d20746865207a65726f206164646044820152637265737360e01b6064820152608401610450565b6001600160a01b0382166107a85760405162461bcd60e51b815260206004820152602260248201527f45524332303a20617070726f766520746f20746865207a65726f206164647265604482015261737360f01b6064820152608401610450565b6001600160a01b0383811660008181526001602090815260408083209487168084529482529182902085905590518481527f8c5be1e5ebec7d5bd14f71427d1e84f3dd0314c0f7b2291e5b200ac8c7c3b925910160405180910390a3505050565b600061081584846106ba565b9050600019811461087d57818110156108705760405162461bcd60e51b815260206004820152601d60248201527f45524332303a20696e73756666696369656e7420616c6c6f77616e63650000006044820152606401610450565b61087d84848484036106e5565b50505050565b6001600160a01b0383166108e75760405162461bcd60e51b815260206004820152602560248201527f45524332303a207472616e736665722066726f6d20746865207a65726f206164604482015264647265737360d81b6064820152608401610450565b6001600160a01b0382166109495760405162461bcd60e51b815260206004820152602360248201527f45524332303a207472616e7366657220746f20746865207a65726f206164647260448201526265737360e81b6064820152608401610450565b6001600160a01b038316600090815260208190526040902054818110156109c15760405162461bcd60e51b815260206004820152602660248201527f45524332303a207472616e7366657220616d6f756e7420657863656564732062604482015265616c616e636560d01b6064820152608401610450565b6001600160a01b03848116600081815260208181526040808320878703905593871680835291849020805487019055925185815290927fddf252ad1be2c89b69c2b068fc378daa952ba7f163c4a11628f55a4df523b3ef910160405180910390a361087d565b6000306001600160a01b037f000000000000000000000000000000000000000000000000000000000000000016148015610a8057507f000000000000000000000000000000000000000000000000000000000000000046145b15610aaa57507f000000000000000000000000000000000000000000000000000000000000000090565b50604080517f00000000000000000000000000000000000000000000000000000000000000006020808301919091527f0000000000000000000000000000000000000000000000000000000000000000828401527f000000000000000000000000000000000000000000000000000000000000000060608301524660808301523060a0808401919091528351808403909101815260c0909201909252805191012090565b6001600160a01b038216610ba45760405162461bcd60e51b815260206004820152601f60248201527f45524332303a206d696e7420746f20746865207a65726f2061646472657373006044820152606401610450565b8060026000828254610bb69190610e09565b90915550506001600160a01b038216600081815260208181526040808320805486019055518481527fddf252ad1be2c89b69c2b068fc378daa952ba7f163c4a11628f55a4df523b3ef910160405180910390a35050565b600060208284031215610c1f57600080fd5b81356001600160e01b031981168114610c3757600080fd5b9392505050565b600060208083528351808285015260005b81811015610c6b57858101830151858201604001528201610c4f565b506000604082860101526040601f19601f8301168501019250505092915050565b80356001600160a01b0381168114610ca357600080fd5b919050565b60008060408385031215610cbb57600080fd5b610cc483610c8c565b946020939093013593505050565b600080600060608486031215610ce757600080fd5b610cf084610c8c565b9250610cfe60208501610c8c565b9150604084013590509250925092565b600060208284031215610d2057600080fd5b610c3782610c8c565b600080600080600080600060e0888a031215610d4457600080fd5b610d4d88610c8c565b9650610d5b60208901610c8c565b95506040880135945060608801359350608088013560ff81168114610d7f57600080fd5b9699959850939692959460a0840135945060c09093013592915050565b60008060408385031215610daf57600080fd5b610db883610c8c565b9150610dc660208401610c8c565b90509250929050565b600181811c90821680610de357607f821691505b602082108103610e0357634e487b7160e01b600052602260045260246000fd5b50919050565b808201808211156102c457634e487b7160e01b600052601160045260246000fdfea2646970667358221220209b3281e559acd512fd9d1161883f3c44dad2ba2ed011fc7374ad2ac61ff13f64736f6c63430008100033",
    "linkReferences": {}
  },
  "methodIdentifiers": {
    "DOMAIN_SEPARATOR()": "3644e515",
    "allowance(address,address)": "dd62ed3e",
    "approve(address,uint256)": "095ea7b3",
    "balanceOf(address)": "70a08231",
    "decimals()": "313ce567",
    "decreaseAllowance(address,uint256)": "a457c2d7",
    "increaseAllowance(address,uint256)": "39509351",
    "mint(address,uint256)": "40c10f19",
    "name()": "06fdde03",
    "nonces(address)": "7ecebe00",
    "permit(address,address,uint256,uint256,uint8,bytes32,bytes32)": "d505accf",
    "supportsInterface(bytes4)": "01ffc9a7",
    "symbol()": "95d89b41",
    "totalSupply()": "18160ddd",
    "transfer(address,uint256)": "a9059cbb",
    "transferFrom(address,address,uint256)": "23b872dd"
  },
  "id": 24
}